{
  "contractName": "TravellerManager",
  "abi": [
    {
      "inputs": [
        {
          "internalType": "address",
          "name": "_photographer",
          "type": "address"
        }
      ],
      "stateMutability": "nonpayable",
      "type": "constructor"
    },
    {
      "anonymous": false,
      "inputs": [
        {
          "indexed": false,
          "internalType": "uint256",
          "name": "index",
          "type": "uint256"
        },
        {
          "indexed": false,
          "internalType": "address",
          "name": "helper",
          "type": "address"
        },
        {
          "indexed": false,
          "internalType": "bool",
          "name": "isApproved",
          "type": "bool"
        }
      ],
      "name": "PhotoStatus",
      "type": "event"
    },
    {
      "inputs": [],
      "name": "balance",
      "outputs": [
        {
          "internalType": "uint256",
          "name": "",
          "type": "uint256"
        }
      ],
      "stateMutability": "view",
      "type": "function"
    },
    {
      "inputs": [],
      "name": "index",
      "outputs": [
        {
          "internalType": "uint256",
          "name": "",
          "type": "uint256"
        }
      ],
      "stateMutability": "view",
      "type": "function"
    },
    {
      "inputs": [],
      "name": "isOwner",
      "outputs": [
        {
          "internalType": "bool",
          "name": "",
          "type": "bool"
        }
      ],
      "stateMutability": "view",
      "type": "function"
    },
    {
      "inputs": [],
      "name": "owner",
      "outputs": [
        {
          "internalType": "address",
          "name": "",
          "type": "address"
        }
      ],
      "stateMutability": "view",
      "type": "function"
    },
    {
      "inputs": [
        {
          "internalType": "uint256",
          "name": "",
          "type": "uint256"
        }
      ],
      "name": "photos",
      "outputs": [
        {
          "internalType": "address payable",
          "name": "helper",
          "type": "address"
        },
        {
          "internalType": "bool",
          "name": "isApproved",
          "type": "bool"
        }
      ],
      "stateMutability": "view",
      "type": "function"
    },
    {
      "inputs": [
        {
          "internalType": "address",
          "name": "newOwner",
          "type": "address"
        }
      ],
      "name": "transferOwnership",
      "outputs": [],
      "stateMutability": "nonpayable",
      "type": "function"
    },
    {
      "stateMutability": "payable",
      "type": "receive"
    },
    {
      "inputs": [],
      "name": "proposePhoto",
      "outputs": [],
      "stateMutability": "nonpayable",
      "type": "function"
    },
    {
      "inputs": [],
      "name": "rejectPhoto",
      "outputs": [],
      "stateMutability": "nonpayable",
      "type": "function"
    },
    {
      "inputs": [
        {
          "internalType": "uint256",
          "name": "_index",
          "type": "uint256"
        }
      ],
      "name": "approvePhoto",
      "outputs": [],
      "stateMutability": "payable",
      "type": "function"
    },
    {
      "inputs": [],
      "name": "withdrawMoney",
      "outputs": [],
      "stateMutability": "payable",
      "type": "function"
    },
    {
      "inputs": [],
      "name": "getBalance",
      "outputs": [
        {
          "internalType": "uint256",
          "name": "",
          "type": "uint256"
        }
      ],
      "stateMutability": "view",
      "type": "function"
    }
  ],
  "bytecode": "0x608060405234801561001057600080fd5b506040516109783803806109788339818101604052602081101561003357600080fd5b505160008054600160a060020a031916331790556100586401000000006100c9810204565b6100b157604080517f08c379a00000000000000000000000000000000000000000000000000000000081526020600482018190526024820152600080516020610958833981519152604482015290519081900360640190fd5b6100c3816401000000006100da810204565b506101c5565b600054600160a060020a0316331490565b6100eb6401000000006100c9810204565b61014457604080517f08c379a00000000000000000000000000000000000000000000000000000000081526020600482018190526024820152600080516020610958833981519152604482015290519081900360640190fd5b600160a060020a0381166101a3576040517f08c379a00000000000000000000000000000000000000000000000000000000081526004018080602001828103825260268152602001806109326026913960400191505060405180910390fd5b60008054600160a060020a031916600160a060020a0392909216919091179055565b61075e806101d46000396000f3fe6080604052600436106100bd576000357c0100000000000000000000000000000000000000000000000000000000900480638f32d59b116100815780638f32d59b14610172578063ac4460021461019b578063af2a5d6f146101a3578063b69ef8a8146101f0578063f2fde38b14610205578063fa283c6514610238576100cc565b806312065fe0146100d15780632986c0e5146100f85780633242d5b81461010d57806363bed871146101245780638da5cb5b14610141576100cc565b366100cc576002805434019055005b600080fd5b3480156100dd57600080fd5b506100e661024d565b60408051918252519081900360200190f35b34801561010457600080fd5b506100e66102a0565b34801561011957600080fd5b506101226102a6565b005b6101226004803603602081101561013a57600080fd5b50356102b1565b34801561014d57600080fd5b506101566103f4565b60408051600160a060020a039092168252519081900360200190f35b34801561017e57600080fd5b50610187610403565b604080519115158252519081900360200190f35b610122610414565b3480156101af57600080fd5b506101cd600480360360208110156101c657600080fd5b5035610497565b60408051600160a060020a03909316835290151560208301528051918290030190f35b3480156101fc57600080fd5b506100e66104cf565b34801561021157600080fd5b506101226004803603602081101561022857600080fd5b5035600160a060020a03166104d5565b34801561024457600080fd5b50610122610596565b6000610257610403565b610299576040805160e560020a62461bcd0281526020600482018190526024820152600080516020610709833981519152604482015290519081900360640190fd5b5060025490565b60015481565b600280546064019055565b6102b9610403565b6102fb576040805160e560020a62461bcd0281526020600482018190526024820152600080516020610709833981519152604482015290519081900360640190fd5b60008181526003602052604090205474010000000000000000000000000000000000000000900460ff161561037a576040805160e560020a62461bcd02815260206004820152601660248201527f70686f746f20616c726561647920617070726f76656400000000000000000000604482015290519081900360640190fd5b600081815260036020526040808220805474ff000000000000000000000000000000000000000019167401000000000000000000000000000000000000000017908190559051600160a060020a0390911691829160649082818181858883f193505050501580156103ef573d6000803e3d6000fd5b505050565b600054600160a060020a031690565b600054600160a060020a0316331490565b61041c610403565b61045e576040805160e560020a62461bcd0281526020600482018190526024820152600080516020610709833981519152604482015290519081900360640190fd5b33806108fc61046b61024d565b6040518115909202916000818181858888f19350505050158015610493573d6000803e3d6000fd5b5050565b600360205260009081526040902054600160a060020a0381169074010000000000000000000000000000000000000000900460ff1682565b60025481565b6104dd610403565b61051f576040805160e560020a62461bcd0281526020600482018190526024820152600080516020610709833981519152604482015290519081900360640190fd5b600160a060020a0381166105675760405160e560020a62461bcd0281526004018080602001828103825260268152602001806106e36026913960400191505060405180910390fd5b6000805473ffffffffffffffffffffffffffffffffffffffff1916600160a060020a0392909216919091179055565b60646105a061024d565b10156105f6576040805160e560020a62461bcd02815260206004820152601360248201527f696e737566666963656e742062616c616e636500000000000000000000000000604482015290519081900360640190fd5b604080518082018252338152600060208083018281526001805484526003835285842094518554925173ffffffffffffffffffffffffffffffffffffffff19909316600160a060020a039182161774ff00000000000000000000000000000000000000001916740100000000000000000000000000000000000000009315158402179095556002805460631901905554808452928590205485519384529384169183019190915260ff92049190911615158183015290517f901f8fa8bb82f90b4b8774dfd50062770076da4af6a96866f94f7f8c0639ccb0916060908290030190a1600180548101905556fe4f776e61626c653a206e6577206f776e657220697320746865207a65726f20616464726573734f776e61626c653a2063616c6c6572206973206e6f7420746865206f776e6572a26469706673582212202901be1105e23d3a0bc17f952f04e2b3dfc8ea6085d2566e9d846ccb1c29243564736f6c634300060000334f776e61626c653a206e6577206f776e657220697320746865207a65726f20616464726573734f776e61626c653a2063616c6c6572206973206e6f7420746865206f776e6572",
  "source": "// TRAVELLER MANAGER\n\npragma solidity ^0.6.0;\n\nimport './Ownable.sol';\n\ncontract TravellerManager is Ownable{\n    uint constant fee = 100;\n    \n    struct Photo {\n        address payable helper;\n        bool isApproved;\n    }\n    \n    uint public index;\n    uint public balance;\n    mapping(uint => Photo) public photos;\n    \n    event PhotoStatus(uint index, address helper, bool isApproved);\n        \n    constructor(address _photographer) public onlyOwner {\n        transferOwnership(_photographer);\n    }\n    \n    function proposePhoto() public {\n        require(getBalance() >= fee, \"insufficent balance\");\n        photos[index] = Photo(msg.sender, false);\n        balance -= fee;\n        emit PhotoStatus(index, photos[index].helper, photos[index].isApproved);\n        index++;\n    }\n    \n    function rejectPhoto() public{\n        balance += fee;\n    }\n    \n    function approvePhoto(uint _index) public payable onlyOwner{\n        require(!photos[_index].isApproved, \"photo already approved\");\n        photos[_index].isApproved = true;\n        address payable to = photos[_index].helper;\n        to.transfer(fee);\n    }\n\n    // Withdrawing money from contract to photograper account\n    function withdrawMoney() public payable onlyOwner {\n        address payable to = msg.sender;\n        to.transfer(getBalance());\n    }\n\n    function getBalance() public view onlyOwner returns(uint) {\n        return balance;\n    }\n    \n    receive() external payable {\n        balance += msg.value;\n    }\n\n}",
  "sourcePath": "/home/alessandro/Desktop/projects/traveller-helper/truffle/contracts/TravellerManager.sol",
  "compiler": {
    "name": "solc",
    "version": "0.6.0+commit.26b70077.Emscripten.clang"
  },
  "schemaVersion": "3.3.3",
  "updatedAt": "2020-12-23T10:18:44.466Z",
  "devdoc": {
    "methods": {
      "isOwner()": {
        "details": "Returns true if the caller is the current owner."
      },
      "owner()": {
        "details": "Returns the address of the current owner."
      },
      "transferOwnership(address)": {
        "details": "Transfers ownership of the contract to a new account (`newOwner`). Can only be called by the current owner."
      }
    }
  },
  "userdoc": {
    "methods": {}
  }
}