{
  "contractName": "AccountManager",
  "abi": [
    {
      "anonymous": false,
      "inputs": [
        {
          "indexed": false,
          "internalType": "string",
          "name": "message",
          "type": "string"
        }
      ],
      "name": "Logging",
      "type": "event"
    },
    {
      "anonymous": false,
      "inputs": [
        {
          "indexed": false,
          "internalType": "address",
          "name": "listedTraveller",
          "type": "address"
        },
        {
          "indexed": false,
          "internalType": "address",
          "name": "travellerManager",
          "type": "address"
        }
      ],
      "name": "TravellerListing",
      "type": "event"
    },
    {
      "inputs": [
        {
          "internalType": "address",
          "name": "",
          "type": "address"
        }
      ],
      "name": "listedTraveller",
      "outputs": [
        {
          "internalType": "contract TravellerManager",
          "name": "",
          "type": "address"
        }
      ],
      "stateMutability": "view",
      "type": "function",
      "constant": true
    },
    {
      "inputs": [
        {
          "internalType": "address",
          "name": "_traveller",
          "type": "address"
        }
      ],
      "name": "enlistTraveller",
      "outputs": [],
      "stateMutability": "nonpayable",
      "type": "function"
    },
    {
      "inputs": [
        {
          "internalType": "address",
          "name": "_traveller",
          "type": "address"
        }
      ],
      "name": "getTraveller",
      "outputs": [
        {
          "internalType": "address",
          "name": "",
          "type": "address"
        }
      ],
      "stateMutability": "view",
      "type": "function",
      "constant": true
    }
  ],
  "bytecode": "0x608060405234801561001057600080fd5b50610ba8806100206000396000f3fe608060405234801561001057600080fd5b506004361061005d577c0100000000000000000000000000000000000000000000000000000000600035046326dc00038114610062578063725f36c51461008a578063c005b20d146100cc575b600080fd5b6100886004803603602081101561007857600080fd5b5035600160a060020a03166100f2565b005b6100b0600480360360208110156100a057600080fd5b5035600160a060020a03166101b4565b60408051600160a060020a039092168252519081900360200190f35b6100b0600480360360208110156100e257600080fd5b5035600160a060020a03166101d2565b806040516100ff906101ed565b600160a060020a03909116815260405190819003602001906000f08015801561012c573d6000803e3d6000fd5b50600160a060020a038281166000818152600160208181526040808420805473ffffffffffffffffffffffffffffffffffffffff19169787169790971787558354909201909255935484519283529092169181019190915281517fecd283654fb12bc20d9bd711dad16f95a5ab4fa60709fb687865f7b0073b9b8d929181900390910190a150565b600160a060020a039081166000908152600160205260409020541690565b600160205260009081526040902054600160a060020a031681565b610978806101fb8339019056fe608060405234801561001057600080fd5b506040516109783803806109788339818101604052602081101561003357600080fd5b505160008054600160a060020a031916331790556100586401000000006100c9810204565b6100b157604080517f08c379a00000000000000000000000000000000000000000000000000000000081526020600482018190526024820152600080516020610958833981519152604482015290519081900360640190fd5b6100c3816401000000006100da810204565b506101c5565b600054600160a060020a0316331490565b6100eb6401000000006100c9810204565b61014457604080517f08c379a00000000000000000000000000000000000000000000000000000000081526020600482018190526024820152600080516020610958833981519152604482015290519081900360640190fd5b600160a060020a0381166101a3576040517f08c379a00000000000000000000000000000000000000000000000000000000081526004018080602001828103825260268152602001806109326026913960400191505060405180910390fd5b60008054600160a060020a031916600160a060020a0392909216919091179055565b61075e806101d46000396000f3fe6080604052600436106100bd576000357c0100000000000000000000000000000000000000000000000000000000900480638f32d59b116100815780638f32d59b14610172578063ac4460021461019b578063af2a5d6f146101a3578063b69ef8a8146101f0578063f2fde38b14610205578063fa283c6514610238576100cc565b806312065fe0146100d15780632986c0e5146100f85780633242d5b81461010d57806363bed871146101245780638da5cb5b14610141576100cc565b366100cc576002805434019055005b600080fd5b3480156100dd57600080fd5b506100e661024d565b60408051918252519081900360200190f35b34801561010457600080fd5b506100e66102a0565b34801561011957600080fd5b506101226102a6565b005b6101226004803603602081101561013a57600080fd5b50356102b1565b34801561014d57600080fd5b506101566103f4565b60408051600160a060020a039092168252519081900360200190f35b34801561017e57600080fd5b50610187610403565b604080519115158252519081900360200190f35b610122610414565b3480156101af57600080fd5b506101cd600480360360208110156101c657600080fd5b5035610497565b60408051600160a060020a03909316835290151560208301528051918290030190f35b3480156101fc57600080fd5b506100e66104cf565b34801561021157600080fd5b506101226004803603602081101561022857600080fd5b5035600160a060020a03166104d5565b34801561024457600080fd5b50610122610596565b6000610257610403565b610299576040805160e560020a62461bcd0281526020600482018190526024820152600080516020610709833981519152604482015290519081900360640190fd5b5060025490565b60015481565b600280546064019055565b6102b9610403565b6102fb576040805160e560020a62461bcd0281526020600482018190526024820152600080516020610709833981519152604482015290519081900360640190fd5b60008181526003602052604090205474010000000000000000000000000000000000000000900460ff161561037a576040805160e560020a62461bcd02815260206004820152601660248201527f70686f746f20616c726561647920617070726f76656400000000000000000000604482015290519081900360640190fd5b600081815260036020526040808220805474ff000000000000000000000000000000000000000019167401000000000000000000000000000000000000000017908190559051600160a060020a0390911691829160649082818181858883f193505050501580156103ef573d6000803e3d6000fd5b505050565b600054600160a060020a031690565b600054600160a060020a0316331490565b61041c610403565b61045e576040805160e560020a62461bcd0281526020600482018190526024820152600080516020610709833981519152604482015290519081900360640190fd5b33806108fc61046b61024d565b6040518115909202916000818181858888f19350505050158015610493573d6000803e3d6000fd5b5050565b600360205260009081526040902054600160a060020a0381169074010000000000000000000000000000000000000000900460ff1682565b60025481565b6104dd610403565b61051f576040805160e560020a62461bcd0281526020600482018190526024820152600080516020610709833981519152604482015290519081900360640190fd5b600160a060020a0381166105675760405160e560020a62461bcd0281526004018080602001828103825260268152602001806106e36026913960400191505060405180910390fd5b6000805473ffffffffffffffffffffffffffffffffffffffff1916600160a060020a0392909216919091179055565b60646105a061024d565b10156105f6576040805160e560020a62461bcd02815260206004820152601360248201527f696e737566666963656e742062616c616e636500000000000000000000000000604482015290519081900360640190fd5b604080518082018252338152600060208083018281526001805484526003835285842094518554925173ffffffffffffffffffffffffffffffffffffffff19909316600160a060020a039182161774ff00000000000000000000000000000000000000001916740100000000000000000000000000000000000000009315158402179095556002805460631901905554808452928590205485519384529384169183019190915260ff92049190911615158183015290517f901f8fa8bb82f90b4b8774dfd50062770076da4af6a96866f94f7f8c0639ccb0916060908290030190a1600180548101905556fe4f776e61626c653a206e6577206f776e657220697320746865207a65726f20616464726573734f776e61626c653a2063616c6c6572206973206e6f7420746865206f776e6572a2646970667358221220a8990a2110a8a175554ae41a4472ab3fc1c9108162936751b33aec12b4d2850b64736f6c634300060000334f776e61626c653a206e6577206f776e657220697320746865207a65726f20616464726573734f776e61626c653a2063616c6c6572206973206e6f7420746865206f776e6572a2646970667358221220a96c905e2853d50c9e694d75a8cc775a4b79f71f24f724a6151c731735666fb464736f6c63430006000033",
  "source": "// ACCOUNT MANAGER\n\npragma solidity ^0.6.0;\n\nimport './TravellerManager.sol';\n\ncontract AccountManager {\n    \n    uint index;\n    mapping(address => TravellerManager) public listedTraveller;\n    \n    event TravellerListing(\n        address listedTraveller,\n        address travellerManager\n    );\n    \n    event Logging(string message);\n    \n    function enlistTraveller(address _traveller) public {\n        listedTraveller[_traveller] = new TravellerManager(_traveller);\n        index++;\n        emit TravellerListing(_traveller, address(listedTraveller[_traveller]));\n    }\n    \n    function getTraveller(address _traveller) public view returns(address) {\n        return address(listedTraveller[_traveller]);\n    }\n}",
  "sourcePath": "/home/jeffry/Documents/TravellerHelper/traveller-helper/truffle/contracts/AccountManager.sol",
  "compiler": {
    "name": "solc",
    "version": "0.6.0+commit.26b70077.Emscripten.clang"
  },
  "schemaVersion": "3.3.2",
  "updatedAt": "2021-02-10T09:36:36.553Z",
  "networkType": "ethereum",
  "devdoc": {
    "methods": {}
  },
  "userdoc": {
    "methods": {}
  }
}