{
  "contractName": "TravellerManager",
  "abi": [
    {
      "inputs": [
        {
          "internalType": "address",
          "name": "_photographer",
          "type": "address"
        }
      ],
      "stateMutability": "nonpayable",
      "type": "constructor"
    },
    {
      "anonymous": false,
      "inputs": [
        {
          "indexed": false,
          "internalType": "uint256",
          "name": "index",
          "type": "uint256"
        },
        {
          "indexed": false,
          "internalType": "address",
          "name": "helper",
          "type": "address"
        },
        {
          "indexed": false,
          "internalType": "bool",
          "name": "isApproved",
          "type": "bool"
        }
      ],
      "name": "PhotoStatus",
      "type": "event"
    },
    {
      "inputs": [],
      "name": "balance",
      "outputs": [
        {
          "internalType": "uint256",
          "name": "",
          "type": "uint256"
        }
      ],
      "stateMutability": "view",
      "type": "function"
    },
    {
      "inputs": [],
      "name": "index",
      "outputs": [
        {
          "internalType": "uint256",
          "name": "",
          "type": "uint256"
        }
      ],
      "stateMutability": "view",
      "type": "function"
    },
    {
      "inputs": [],
      "name": "isOwner",
      "outputs": [
        {
          "internalType": "bool",
          "name": "",
          "type": "bool"
        }
      ],
      "stateMutability": "view",
      "type": "function"
    },
    {
      "inputs": [],
      "name": "owner",
      "outputs": [
        {
          "internalType": "address",
          "name": "",
          "type": "address"
        }
      ],
      "stateMutability": "view",
      "type": "function"
    },
    {
      "inputs": [
        {
          "internalType": "uint256",
          "name": "",
          "type": "uint256"
        }
      ],
      "name": "photos",
      "outputs": [
        {
          "internalType": "address payable",
          "name": "helper",
          "type": "address"
        },
        {
          "internalType": "bool",
          "name": "isApproved",
          "type": "bool"
        }
      ],
      "stateMutability": "view",
      "type": "function"
    },
    {
      "inputs": [
        {
          "internalType": "address",
          "name": "newOwner",
          "type": "address"
        }
      ],
      "name": "transferOwnership",
      "outputs": [],
      "stateMutability": "nonpayable",
      "type": "function"
    },
    {
      "stateMutability": "payable",
      "type": "receive"
    },
    {
      "inputs": [],
      "name": "proposePhoto",
      "outputs": [],
      "stateMutability": "nonpayable",
      "type": "function"
    },
    {
      "inputs": [],
      "name": "rejectPhoto",
      "outputs": [],
      "stateMutability": "nonpayable",
      "type": "function"
    },
    {
      "inputs": [
        {
          "internalType": "uint256",
          "name": "_index",
          "type": "uint256"
        }
      ],
      "name": "approvePhoto",
      "outputs": [],
      "stateMutability": "payable",
      "type": "function"
    },
    {
      "inputs": [],
      "name": "withdrawMoney",
      "outputs": [],
      "stateMutability": "payable",
      "type": "function"
    },
    {
      "inputs": [],
      "name": "getBalance",
      "outputs": [
        {
          "internalType": "uint256",
          "name": "",
          "type": "uint256"
        }
      ],
      "stateMutability": "view",
      "type": "function"
    }
  ],
  "bytecode": "0x608060405234801561001057600080fd5b50604051610dbe380380610dbe8339818101604052602081101561003357600080fd5b8101908080519060200190929190505050336000806101000a81548173ffffffffffffffffffffffffffffffffffffffff021916908373ffffffffffffffffffffffffffffffffffffffff16021790555061009261011960201b60201c565b610104576040517f08c379a00000000000000000000000000000000000000000000000000000000081526004018080602001828103825260208152602001807f4f776e61626c653a2063616c6c6572206973206e6f7420746865206f776e657281525060200191505060405180910390fd5b6101138161017060201b60201c565b506102b9565b60008060009054906101000a900473ffffffffffffffffffffffffffffffffffffffff1673ffffffffffffffffffffffffffffffffffffffff163373ffffffffffffffffffffffffffffffffffffffff1614905090565b61017e61011960201b60201c565b6101f0576040517f08c379a00000000000000000000000000000000000000000000000000000000081526004018080602001828103825260208152602001807f4f776e61626c653a2063616c6c6572206973206e6f7420746865206f776e657281525060200191505060405180910390fd5b600073ffffffffffffffffffffffffffffffffffffffff168173ffffffffffffffffffffffffffffffffffffffff161415610276576040517f08c379a0000000000000000000000000000000000000000000000000000000008152600401808060200182810382526026815260200180610d986026913960400191505060405180910390fd5b806000806101000a81548173ffffffffffffffffffffffffffffffffffffffff021916908373ffffffffffffffffffffffffffffffffffffffff16021790555050565b610ad0806102c86000396000f3fe6080604052600436106100a05760003560e01c80638f32d59b116100645780638f32d59b146101ae578063ac446002146101dd578063af2a5d6f146101e7578063b69ef8a81461026d578063f2fde38b14610298578063fa283c65146102e9576100b7565b806312065fe0146100bc5780632986c0e5146100e75780633242d5b81461011257806363bed871146101295780638da5cb5b14610157576100b7565b366100b75734600260008282540192505081905550005b600080fd5b3480156100c857600080fd5b506100d1610300565b6040518082815260200191505060405180910390f35b3480156100f357600080fd5b506100fc610384565b6040518082815260200191505060405180910390f35b34801561011e57600080fd5b5061012761038a565b005b6101556004803603602081101561013f57600080fd5b810190808035906020019092919050505061039d565b005b34801561016357600080fd5b5061016c610564565b604051808273ffffffffffffffffffffffffffffffffffffffff1673ffffffffffffffffffffffffffffffffffffffff16815260200191505060405180910390f35b3480156101ba57600080fd5b506101c361058d565b604051808215151515815260200191505060405180910390f35b6101e56105e4565b005b3480156101f357600080fd5b506102206004803603602081101561020a57600080fd5b81019080803590602001909291905050506106b4565b604051808373ffffffffffffffffffffffffffffffffffffffff1673ffffffffffffffffffffffffffffffffffffffff168152602001821515151581526020019250505060405180910390f35b34801561027957600080fd5b50610282610705565b6040518082815260200191505060405180910390f35b3480156102a457600080fd5b506102e7600480360360208110156102bb57600080fd5b81019080803573ffffffffffffffffffffffffffffffffffffffff16906020019092919050505061070b565b005b3480156102f557600080fd5b506102fe61084e565b005b600061030a61058d565b61037c576040517f08c379a00000000000000000000000000000000000000000000000000000000081526004018080602001828103825260208152602001807f4f776e61626c653a2063616c6c6572206973206e6f7420746865206f776e657281525060200191505060405180910390fd5b600254905090565b60015481565b6064600260008282540192505081905550565b6103a561058d565b610417576040517f08c379a00000000000000000000000000000000000000000000000000000000081526004018080602001828103825260208152602001807f4f776e61626c653a2063616c6c6572206973206e6f7420746865206f776e657281525060200191505060405180910390fd5b6003600082815260200190815260200160002060000160149054906101000a900460ff16156104ae576040517f08c379a00000000000000000000000000000000000000000000000000000000081526004018080602001828103825260168152602001807f70686f746f20616c726561647920617070726f7665640000000000000000000081525060200191505060405180910390fd5b60016003600083815260200190815260200160002060000160146101000a81548160ff02191690831515021790555060006003600083815260200190815260200160002060000160009054906101000a900473ffffffffffffffffffffffffffffffffffffffff1690508073ffffffffffffffffffffffffffffffffffffffff166108fc60649081150290604051600060405180830381858888f1935050505015801561055f573d6000803e3d6000fd5b505050565b60008060009054906101000a900473ffffffffffffffffffffffffffffffffffffffff16905090565b60008060009054906101000a900473ffffffffffffffffffffffffffffffffffffffff1673ffffffffffffffffffffffffffffffffffffffff163373ffffffffffffffffffffffffffffffffffffffff1614905090565b6105ec61058d565b61065e576040517f08c379a00000000000000000000000000000000000000000000000000000000081526004018080602001828103825260208152602001807f4f776e61626c653a2063616c6c6572206973206e6f7420746865206f776e657281525060200191505060405180910390fd5b60003390508073ffffffffffffffffffffffffffffffffffffffff166108fc610685610300565b9081150290604051600060405180830381858888f193505050501580156106b0573d6000803e3d6000fd5b5050565b60036020528060005260406000206000915090508060000160009054906101000a900473ffffffffffffffffffffffffffffffffffffffff16908060000160149054906101000a900460ff16905082565b60025481565b61071361058d565b610785576040517f08c379a00000000000000000000000000000000000000000000000000000000081526004018080602001828103825260208152602001807f4f776e61626c653a2063616c6c6572206973206e6f7420746865206f776e657281525060200191505060405180910390fd5b600073ffffffffffffffffffffffffffffffffffffffff168173ffffffffffffffffffffffffffffffffffffffff16141561080b576040517f08c379a0000000000000000000000000000000000000000000000000000000008152600401808060200182810382526026815260200180610a756026913960400191505060405180910390fd5b806000806101000a81548173ffffffffffffffffffffffffffffffffffffffff021916908373ffffffffffffffffffffffffffffffffffffffff16021790555050565b6064610858610300565b10156108cc576040517f08c379a00000000000000000000000000000000000000000000000000000000081526004018080602001828103825260138152602001807f696e737566666963656e742062616c616e63650000000000000000000000000081525060200191505060405180910390fd5b60405180604001604052803373ffffffffffffffffffffffffffffffffffffffff1681526020016000151581525060036000600154815260200190815260200160002060008201518160000160006101000a81548173ffffffffffffffffffffffffffffffffffffffff021916908373ffffffffffffffffffffffffffffffffffffffff16021790555060208201518160000160146101000a81548160ff02191690831515021790555090505060646002600082825403925050819055507f901f8fa8bb82f90b4b8774dfd50062770076da4af6a96866f94f7f8c0639ccb060015460036000600154815260200190815260200160002060000160009054906101000a900473ffffffffffffffffffffffffffffffffffffffff1660036000600154815260200190815260200160002060000160149054906101000a900460ff16604051808481526020018373ffffffffffffffffffffffffffffffffffffffff1673ffffffffffffffffffffffffffffffffffffffff16815260200182151515158152602001935050505060405180910390a160016000815480929190600101919050555056fe4f776e61626c653a206e6577206f776e657220697320746865207a65726f2061646472657373a2646970667358221220019d0741df8265f47034cc602ae0df0f616104bb4bf7d53f47986198ceacf55b64736f6c634300060000334f776e61626c653a206e6577206f776e657220697320746865207a65726f2061646472657373",
  "source": "// TRAVELLER MANAGER\n\npragma solidity ^0.6.0;\n\nimport './Ownable.sol';\n\ncontract TravellerManager is Ownable{\n    uint constant fee = 100;\n    \n    struct Photo {\n        address payable helper;\n        bool isApproved;\n    }\n    \n    uint public index;\n    uint public balance;\n    mapping(uint => Photo) public photos;\n    \n    event PhotoStatus(uint index, address helper, bool isApproved);\n        \n    constructor(address _photographer) public onlyOwner {\n        transferOwnership(_photographer);\n    }\n    \n    function proposePhoto() public {\n        require(getBalance() >= fee, \"insufficent balance\");\n        photos[index] = Photo(msg.sender, false);\n        balance -= fee;\n        emit PhotoStatus(index, photos[index].helper, photos[index].isApproved);\n        index++;\n    }\n    \n    function rejectPhoto() public{\n        balance += fee;\n    }\n    \n    function approvePhoto(uint _index) public payable onlyOwner{\n        require(!photos[_index].isApproved, \"photo already approved\");\n        photos[_index].isApproved = true;\n        address payable to = photos[_index].helper;\n        to.transfer(fee);\n    }\n\n    // Withdrawing money from contract to photograper account\n    function withdrawMoney() public payable onlyOwner {\n        address payable to = msg.sender;\n        to.transfer(getBalance());\n    }\n\n    function getBalance() public view onlyOwner returns(uint) {\n        return balance;\n    }\n    \n    receive() external payable {\n        balance += msg.value;\n    }\n\n}",
  "sourcePath": "/home/jeffry/Documents/TravellerHelper/traveller-helper/contracts/TravellerManager.sol",
  "compiler": {
    "name": "solc",
    "version": "0.6.0+commit.26b70077.Emscripten.clang"
  },
  "schemaVersion": "3.3.2",
  "updatedAt": "2020-12-10T05:32:53.507Z",
  "devdoc": {
    "methods": {
      "isOwner()": {
        "details": "Returns true if the caller is the current owner."
      },
      "owner()": {
        "details": "Returns the address of the current owner."
      },
      "transferOwnership(address)": {
        "details": "Transfers ownership of the contract to a new account (`newOwner`). Can only be called by the current owner."
      }
    }
  },
  "userdoc": {
    "methods": {}
  }
}